{
  "contractName": "TodoList",
  "abi": [
    {
      "inputs": [
        {
          "internalType": "string",
          "name": "_content",
          "type": "string"
        },
        {
          "internalType": "string",
          "name": "_author",
          "type": "string"
        }
      ],
      "name": "createTask",
      "outputs": [],
      "stateMutability": "nonpayable",
      "type": "function"
    },
    {
      "inputs": [
        {
          "internalType": "uint256",
          "name": "_id",
          "type": "uint256"
        }
      ],
      "name": "getTask",
      "outputs": [
        {
          "internalType": "uint256",
          "name": "",
          "type": "uint256"
        },
        {
          "internalType": "uint256",
          "name": "",
          "type": "uint256"
        },
        {
          "internalType": "string",
          "name": "",
          "type": "string"
        },
        {
          "internalType": "string",
          "name": "",
          "type": "string"
        },
        {
          "internalType": "bool",
          "name": "",
          "type": "bool"
        }
      ],
      "stateMutability": "view",
      "type": "function",
      "constant": true
    },
    {
      "inputs": [],
      "name": "getTasks",
      "outputs": [
        {
          "components": [
            {
              "internalType": "uint256",
              "name": "id",
              "type": "uint256"
            },
            {
              "internalType": "uint256",
              "name": "date",
              "type": "uint256"
            },
            {
              "internalType": "string",
              "name": "content",
              "type": "string"
            },
            {
              "internalType": "string",
              "name": "author",
              "type": "string"
            },
            {
              "internalType": "bool",
              "name": "done",
              "type": "bool"
            }
          ],
          "internalType": "struct TodoList.Task[]",
          "name": "",
          "type": "tuple[]"
        }
      ],
      "stateMutability": "view",
      "type": "function",
      "constant": true
    },
    {
      "inputs": [
        {
          "internalType": "uint256",
          "name": "_id",
          "type": "uint256"
        }
      ],
      "name": "doneTask",
      "outputs": [],
      "stateMutability": "nonpayable",
      "type": "function"
    }
  ],
  "bytecode": "0x6080604052600160005534801561001557600080fd5b50610caf806100256000396000f3fe608060405234801561001057600080fd5b506004361061004c5760003560e01c806304a87e38146100515780631d65e77e1461006f578063292a4585146100a35780635e6f8337146100bf575b600080fd5b6100596100db565b604051610066919061089b565b60405180910390f35b610089600480360381019061008491906108fd565b61028d565b60405161009a959493929190610992565b60405180910390f35b6100bd60048036038101906100b89190610b28565b610428565b005b6100d960048036038101906100d491906108fd565b6105bb565b005b60606002805480602002602001604051908101604052809291908181526020016000905b8282101561028457838290600052602060002090600502016040518060a0016040529081600082015481526020016001820154815260200160028201805461014690610bcf565b80601f016020809104026020016040519081016040528092919081815260200182805461017290610bcf565b80156101bf5780601f10610194576101008083540402835291602001916101bf565b820191906000526020600020905b8154815290600101906020018083116101a257829003601f168201915b505050505081526020016003820180546101d890610bcf565b80601f016020809104026020016040519081016040528092919081815260200182805461020490610bcf565b80156102515780601f1061022657610100808354040283529160200191610251565b820191906000526020600020905b81548152906001019060200180831161023457829003601f168201915b505050505081526020016004820160009054906101000a900460ff161515151581525050815260200190600101906100ff565b50505050905090565b600080606080600085600160008881526020019081526020016000206001015460016000898152602001908152602001600020600201600160008a8152602001908152602001600020600301600160008b815260200190815260200160002060040160009054906101000a900460ff1682805461030990610bcf565b80601f016020809104026020016040519081016040528092919081815260200182805461033590610bcf565b80156103825780601f1061035757610100808354040283529160200191610382565b820191906000526020600020905b81548152906001019060200180831161036557829003601f168201915b5050505050925081805461039590610bcf565b80601f01602080910402602001604051908101604052809291908181526020018280546103c190610bcf565b801561040e5780601f106103e35761010080835404028352916020019161040e565b820191906000526020600020905b8154815290600101906020018083116103f157829003601f168201915b505050505091509450945094509450945091939590929450565b6040518060a001604052806000548152602001428152602001838152602001828152602001600015158152506001600080548152602001908152602001600020600082015181600001556020820151816001015560408201518160020190805190602001906104989291906105ec565b5060608201518160030190805190602001906104b59291906105ec565b5060808201518160040160006101000a81548160ff02191690831515021790555090505060026040518060a001604052806000548152602001428152602001848152602001838152602001600015158152509080600181540180825580915050600190039060005260206000209060050201600090919091909150600082015181600001556020820151816001015560408201518160020190805190602001906105609291906105ec565b50606082015181600301908051906020019061057d9291906105ec565b5060808201518160040160006101000a81548160ff02191690831515021790555050506000808154809291906105b290610c30565b91905055505050565b600180600083815260200190815260200160002060040160006101000a81548160ff02191690831515021790555050565b8280546105f890610bcf565b90600052602060002090601f01602090048101928261061a5760008555610661565b82601f1061063357805160ff1916838001178555610661565b82800160010185558215610661579182015b82811115610660578251825591602001919060010190610645565b5b50905061066e9190610672565b5090565b5b8082111561068b576000816000905550600101610673565b5090565b600081519050919050565b600082825260208201905092915050565b6000819050602082019050919050565b6000819050919050565b6106ce816106bb565b82525050565b600081519050919050565b600082825260208201905092915050565b60005b8381101561070e5780820151818401526020810190506106f3565b8381111561071d576000848401525b50505050565b6000601f19601f8301169050919050565b600061073f826106d4565b61074981856106df565b93506107598185602086016106f0565b61076281610723565b840191505092915050565b60008115159050919050565b6107828161076d565b82525050565b600060a0830160008301516107a060008601826106c5565b5060208301516107b360208601826106c5565b50604083015184820360408601526107cb8282610734565b915050606083015184820360608601526107e58282610734565b91505060808301516107fa6080860182610779565b508091505092915050565b60006108118383610788565b905092915050565b6000602082019050919050565b60006108318261068f565b61083b818561069a565b93508360208202850161084d856106ab565b8060005b85811015610889578484038952815161086a8582610805565b945061087583610819565b925060208a01995050600181019050610851565b50829750879550505050505092915050565b600060208201905081810360008301526108b58184610826565b905092915050565b6000604051905090565b600080fd5b600080fd5b6108da816106bb565b81146108e557600080fd5b50565b6000813590506108f7816108d1565b92915050565b600060208284031215610913576109126108c7565b5b6000610921848285016108e8565b91505092915050565b610933816106bb565b82525050565b600082825260208201905092915050565b6000610955826106d4565b61095f8185610939565b935061096f8185602086016106f0565b61097881610723565b840191505092915050565b61098c8161076d565b82525050565b600060a0820190506109a7600083018861092a565b6109b4602083018761092a565b81810360408301526109c6818661094a565b905081810360608301526109da818561094a565b90506109e96080830184610983565b9695505050505050565b600080fd5b600080fd5b7f4e487b7100000000000000000000000000000000000000000000000000000000600052604160045260246000fd5b610a3582610723565b810181811067ffffffffffffffff82111715610a5457610a536109fd565b5b80604052505050565b6000610a676108bd565b9050610a738282610a2c565b919050565b600067ffffffffffffffff821115610a9357610a926109fd565b5b610a9c82610723565b9050602081019050919050565b82818337600083830152505050565b6000610acb610ac684610a78565b610a5d565b905082815260208101848484011115610ae757610ae66109f8565b5b610af2848285610aa9565b509392505050565b600082601f830112610b0f57610b0e6109f3565b5b8135610b1f848260208601610ab8565b91505092915050565b60008060408385031215610b3f57610b3e6108c7565b5b600083013567ffffffffffffffff811115610b5d57610b5c6108cc565b5b610b6985828601610afa565b925050602083013567ffffffffffffffff811115610b8a57610b896108cc565b5b610b9685828601610afa565b9150509250929050565b7f4e487b7100000000000000000000000000000000000000000000000000000000600052602260045260246000fd5b60006002820490506001821680610be757607f821691505b60208210811415610bfb57610bfa610ba0565b5b50919050565b7f4e487b7100000000000000000000000000000000000000000000000000000000600052601160045260246000fd5b6000610c3b826106bb565b91507fffffffffffffffffffffffffffffffffffffffffffffffffffffffffffffffff821415610c6e57610c6d610c01565b5b60018201905091905056fea264697066735822122066ccb94802c5cba89fad42d0f82f813b962613a2243e1e68b45511e42f33ff5064736f6c634300080a0033",
  "immutableReferences": {},
  "source": "pragma solidity ^0.8.2;\n\ncontract TodoList {\n  struct Task {\n    uint id;\n    uint date;\n    string content;\n    string author;\n    bool done;\n  }\n\n  uint nextId = 1;\n\n  mapping (uint => Task) tasks;\n\n  Task[] listTask;\n\n  function createTask(string memory _content, string memory _author) external {\n    tasks[nextId] = (Task(nextId, block.timestamp, _content, _author, false));\n    listTask.push(Task(nextId, block.timestamp, _content, _author, false));\n    nextId++;\n  }\n\n  function getTask(uint _id) external view returns (uint, uint, string memory, string memory, bool) {\n    return (_id, tasks[_id].date, tasks[_id].content, tasks[_id].author, tasks[_id].done);\n  }\n\n  function getTasks()\n    external\n    view\n    returns(Task[] memory) {\n   return listTask;\n  }\n\n  function doneTask(uint _id) external {\n    tasks[_id].done = true;\n  }\n}",
  "sourcePath": "/home/chihieu/project_web/todolist_blockchain/contracts/TodoList.sol",
  "compiler": {
    "name": "solc",
    "version": "0.8.10+commit.fc410830.Emscripten.clang"
  },
  "schemaVersion": "3.4.3",
  "updatedAt": "2022-01-11T09:00:13.851Z",
  "networkType": "ethereum",
  "devdoc": {
    "kind": "dev",
    "methods": {},
    "version": 1
  },
  "userdoc": {
    "kind": "user",
    "methods": {},
    "version": 1
  }
}