{
  "contractName": "TodoList",
  "abi": [
    {
      "anonymous": false,
      "inputs": [
        {
          "indexed": false,
          "internalType": "uint256",
          "name": "nextId",
          "type": "uint256"
        },
        {
          "indexed": false,
          "internalType": "string",
          "name": "_content",
          "type": "string"
        },
        {
          "indexed": false,
          "internalType": "string",
          "name": "_memory",
          "type": "string"
        }
      ],
      "name": "taskCreated",
      "type": "event"
    },
    {
      "inputs": [
        {
          "internalType": "string",
          "name": "_content",
          "type": "string"
        },
        {
          "internalType": "string",
          "name": "_author",
          "type": "string"
        }
      ],
      "name": "createTask",
      "outputs": [],
      "stateMutability": "nonpayable",
      "type": "function"
    },
    {
      "inputs": [
        {
          "internalType": "uint256",
          "name": "_id",
          "type": "uint256"
        }
      ],
      "name": "getTask",
      "outputs": [
        {
          "internalType": "uint256",
          "name": "",
          "type": "uint256"
        },
        {
          "internalType": "uint256",
          "name": "",
          "type": "uint256"
        },
        {
          "internalType": "string",
          "name": "",
          "type": "string"
        },
        {
          "internalType": "string",
          "name": "",
          "type": "string"
        },
        {
          "internalType": "bool",
          "name": "",
          "type": "bool"
        }
      ],
      "stateMutability": "view",
      "type": "function",
      "constant": true
    },
    {
      "inputs": [],
      "name": "getTasks",
      "outputs": [
        {
          "components": [
            {
              "internalType": "uint256",
              "name": "id",
              "type": "uint256"
            },
            {
              "internalType": "uint256",
              "name": "date",
              "type": "uint256"
            },
            {
              "internalType": "string",
              "name": "content",
              "type": "string"
            },
            {
              "internalType": "string",
              "name": "author",
              "type": "string"
            },
            {
              "internalType": "bool",
              "name": "done",
              "type": "bool"
            }
          ],
          "internalType": "struct TodoList.Task[]",
          "name": "",
          "type": "tuple[]"
        }
      ],
      "stateMutability": "view",
      "type": "function",
      "constant": true
    },
    {
      "inputs": [
        {
          "internalType": "uint256",
          "name": "_id",
          "type": "uint256"
        }
      ],
      "name": "doneTask",
      "outputs": [],
      "stateMutability": "nonpayable",
      "type": "function"
    }
  ],
  "bytecode": "0x6080604052600160005534801561001557600080fd5b50610d30806100256000396000f3fe608060405234801561001057600080fd5b506004361061004c5760003560e01c806304a87e38146100515780631d65e77e1461006f578063292a4585146100a35780635e6f8337146100bf575b600080fd5b6100596100db565b60405161006691906108d7565b60405180910390f35b61008960048036038101906100849190610939565b61028d565b60405161009a9594939291906109ce565b60405180910390f35b6100bd60048036038101906100b89190610b64565b610428565b005b6100d960048036038101906100d49190610939565b6105f7565b005b60606002805480602002602001604051908101604052809291908181526020016000905b8282101561028457838290600052602060002090600502016040518060a0016040529081600082015481526020016001820154815260200160028201805461014690610c0b565b80601f016020809104026020016040519081016040528092919081815260200182805461017290610c0b565b80156101bf5780601f10610194576101008083540402835291602001916101bf565b820191906000526020600020905b8154815290600101906020018083116101a257829003601f168201915b505050505081526020016003820180546101d890610c0b565b80601f016020809104026020016040519081016040528092919081815260200182805461020490610c0b565b80156102515780601f1061022657610100808354040283529160200191610251565b820191906000526020600020905b81548152906001019060200180831161023457829003601f168201915b505050505081526020016004820160009054906101000a900460ff161515151581525050815260200190600101906100ff565b50505050905090565b600080606080600085600160008881526020019081526020016000206001015460016000898152602001908152602001600020600201600160008a8152602001908152602001600020600301600160008b815260200190815260200160002060040160009054906101000a900460ff1682805461030990610c0b565b80601f016020809104026020016040519081016040528092919081815260200182805461033590610c0b565b80156103825780601f1061035757610100808354040283529160200191610382565b820191906000526020600020905b81548152906001019060200180831161036557829003601f168201915b5050505050925081805461039590610c0b565b80601f01602080910402602001604051908101604052809291908181526020018280546103c190610c0b565b801561040e5780601f106103e35761010080835404028352916020019161040e565b820191906000526020600020905b8154815290600101906020018083116103f157829003601f168201915b505050505091509450945094509450945091939590929450565b6040518060a00160405280600054815260200142815260200183815260200182815260200160001515815250600160008054815260200190815260200160002060008201518160000155602082015181600101556040820151816002019080519060200190610498929190610628565b5060608201518160030190805190602001906104b5929190610628565b5060808201518160040160006101000a81548160ff02191690831515021790555090505060026040518060a00160405280600054815260200142815260200184815260200183815260200160001515815250908060018154018082558091505060019003906000526020600020906005020160009091909190915060008201518160000155602082015181600101556040820151816002019080519060200190610560929190610628565b50606082015181600301908051906020019061057d929190610628565b5060808201518160040160006101000a81548160ff02191690831515021790555050507e0a47261ba5282b90d5d77223410381b3b935258b52de9a55f73bee5707266260005483836040516105d493929190610c3d565b60405180910390a16000808154809291906105ee90610cb1565b91905055505050565b600180600083815260200190815260200160002060040160006101000a81548160ff02191690831515021790555050565b82805461063490610c0b565b90600052602060002090601f016020900481019282610656576000855561069d565b82601f1061066f57805160ff191683800117855561069d565b8280016001018555821561069d579182015b8281111561069c578251825591602001919060010190610681565b5b5090506106aa91906106ae565b5090565b5b808211156106c75760008160009055506001016106af565b5090565b600081519050919050565b600082825260208201905092915050565b6000819050602082019050919050565b6000819050919050565b61070a816106f7565b82525050565b600081519050919050565b600082825260208201905092915050565b60005b8381101561074a57808201518184015260208101905061072f565b83811115610759576000848401525b50505050565b6000601f19601f8301169050919050565b600061077b82610710565b610785818561071b565b935061079581856020860161072c565b61079e8161075f565b840191505092915050565b60008115159050919050565b6107be816107a9565b82525050565b600060a0830160008301516107dc6000860182610701565b5060208301516107ef6020860182610701565b50604083015184820360408601526108078282610770565b915050606083015184820360608601526108218282610770565b915050608083015161083660808601826107b5565b508091505092915050565b600061084d83836107c4565b905092915050565b6000602082019050919050565b600061086d826106cb565b61087781856106d6565b935083602082028501610889856106e7565b8060005b858110156108c557848403895281516108a68582610841565b94506108b183610855565b925060208a0199505060018101905061088d565b50829750879550505050505092915050565b600060208201905081810360008301526108f18184610862565b905092915050565b6000604051905090565b600080fd5b600080fd5b610916816106f7565b811461092157600080fd5b50565b6000813590506109338161090d565b92915050565b60006020828403121561094f5761094e610903565b5b600061095d84828501610924565b91505092915050565b61096f816106f7565b82525050565b600082825260208201905092915050565b600061099182610710565b61099b8185610975565b93506109ab81856020860161072c565b6109b48161075f565b840191505092915050565b6109c8816107a9565b82525050565b600060a0820190506109e36000830188610966565b6109f06020830187610966565b8181036040830152610a028186610986565b90508181036060830152610a168185610986565b9050610a2560808301846109bf565b9695505050505050565b600080fd5b600080fd5b7f4e487b7100000000000000000000000000000000000000000000000000000000600052604160045260246000fd5b610a718261075f565b810181811067ffffffffffffffff82111715610a9057610a8f610a39565b5b80604052505050565b6000610aa36108f9565b9050610aaf8282610a68565b919050565b600067ffffffffffffffff821115610acf57610ace610a39565b5b610ad88261075f565b9050602081019050919050565b82818337600083830152505050565b6000610b07610b0284610ab4565b610a99565b905082815260208101848484011115610b2357610b22610a34565b5b610b2e848285610ae5565b509392505050565b600082601f830112610b4b57610b4a610a2f565b5b8135610b5b848260208601610af4565b91505092915050565b60008060408385031215610b7b57610b7a610903565b5b600083013567ffffffffffffffff811115610b9957610b98610908565b5b610ba585828601610b36565b925050602083013567ffffffffffffffff811115610bc657610bc5610908565b5b610bd285828601610b36565b9150509250929050565b7f4e487b7100000000000000000000000000000000000000000000000000000000600052602260045260246000fd5b60006002820490506001821680610c2357607f821691505b60208210811415610c3757610c36610bdc565b5b50919050565b6000606082019050610c526000830186610966565b8181036020830152610c648185610986565b90508181036040830152610c788184610986565b9050949350505050565b7f4e487b7100000000000000000000000000000000000000000000000000000000600052601160045260246000fd5b6000610cbc826106f7565b91507fffffffffffffffffffffffffffffffffffffffffffffffffffffffffffffffff821415610cef57610cee610c82565b5b60018201905091905056fea26469706673582212202beab92db6e2d4e325f634eab2599841653ef349c7850cfee0adf66d93542b0264736f6c634300080a0033",
  "immutableReferences": {},
  "source": "pragma solidity ^0.8.2;\n\ncontract TodoList {\n  struct Task {\n    uint id;\n    uint date;\n    string content;\n    string author;\n    bool done;\n  }\n\n  uint nextId = 1;\n\n  mapping (uint => Task) tasks;\n\n  event taskCreated(uint nextId, string _content, string _memory);\n\n  Task[] listTask;\n\n  function createTask(string memory _content, string memory _author) external {\n    tasks[nextId] = (Task(nextId, block.timestamp, _content, _author, false));\n    listTask.push(Task(nextId, block.timestamp, _content, _author, false));\n    emit taskCreated(nextId, _content, _author);\n    nextId++;\n    \n  }\n\n  function getTask(uint _id) external view returns (uint, uint, string memory, string memory, bool) {\n    return (_id, tasks[_id].date, tasks[_id].content, tasks[_id].author, tasks[_id].done);\n  }\n\n  function getTasks()\n    external\n    view\n    returns(Task[] memory) {\n   return listTask;\n  }\n\n  function doneTask(uint _id) external {\n    tasks[_id].done = true;\n  }\n}",
  "sourcePath": "/home/chihieu/project_web/todolist_blockchain/contracts/TodoList.sol",
  "compiler": {
    "name": "solc",
    "version": "0.8.10+commit.fc410830.Emscripten.clang"
  },
  "schemaVersion": "3.4.3",
  "updatedAt": "2022-01-11T16:27:06.018Z",
  "networkType": "ethereum",
  "devdoc": {
    "kind": "dev",
    "methods": {},
    "version": 1
  },
  "userdoc": {
    "kind": "user",
    "methods": {},
    "version": 1
  }
}